{
  "abi": [
    {
      "inputs": [],
      "stateMutability": "nonpayable",
      "type": "constructor"
    },
    {
      "inputs": [],
      "name": "ERC721EnumerableForbiddenBatchMint",
      "type": "error"
    },
    {
      "inputs": [
        {
          "internalType": "address",
          "name": "sender",
          "type": "address"
        },
        {
          "internalType": "uint256",
          "name": "tokenId",
          "type": "uint256"
        },
        {
          "internalType": "address",
          "name": "owner",
          "type": "address"
        }
      ],
      "name": "ERC721IncorrectOwner",
      "type": "error"
    },
    {
      "inputs": [
        {
          "internalType": "address",
          "name": "operator",
          "type": "address"
        },
        {
          "internalType": "uint256",
          "name": "tokenId",
          "type": "uint256"
        }
      ],
      "name": "ERC721InsufficientApproval",
      "type": "error"
    },
    {
      "inputs": [
        {
          "internalType": "address",
          "name": "approver",
          "type": "address"
        }
      ],
      "name": "ERC721InvalidApprover",
      "type": "error"
    },
    {
      "inputs": [
        {
          "internalType": "address",
          "name": "operator",
          "type": "address"
        }
      ],
      "name": "ERC721InvalidOperator",
      "type": "error"
    },
    {
      "inputs": [
        {
          "internalType": "address",
          "name": "owner",
          "type": "address"
        }
      ],
      "name": "ERC721InvalidOwner",
      "type": "error"
    },
    {
      "inputs": [
        {
          "internalType": "address",
          "name": "receiver",
          "type": "address"
        }
      ],
      "name": "ERC721InvalidReceiver",
      "type": "error"
    },
    {
      "inputs": [
        {
          "internalType": "address",
          "name": "sender",
          "type": "address"
        }
      ],
      "name": "ERC721InvalidSender",
      "type": "error"
    },
    {
      "inputs": [
        {
          "internalType": "uint256",
          "name": "tokenId",
          "type": "uint256"
        }
      ],
      "name": "ERC721NonexistentToken",
      "type": "error"
    },
    {
      "inputs": [
        {
          "internalType": "address",
          "name": "owner",
          "type": "address"
        },
        {
          "internalType": "uint256",
          "name": "index",
          "type": "uint256"
        }
      ],
      "name": "ERC721OutOfBoundsIndex",
      "type": "error"
    },
    {
      "anonymous": false,
      "inputs": [
        {
          "indexed": true,
          "internalType": "address",
          "name": "owner",
          "type": "address"
        },
        {
          "indexed": true,
          "internalType": "address",
          "name": "approved",
          "type": "address"
        },
        {
          "indexed": true,
          "internalType": "uint256",
          "name": "tokenId",
          "type": "uint256"
        }
      ],
      "name": "Approval",
      "type": "event"
    },
    {
      "anonymous": false,
      "inputs": [
        {
          "indexed": true,
          "internalType": "address",
          "name": "owner",
          "type": "address"
        },
        {
          "indexed": true,
          "internalType": "address",
          "name": "operator",
          "type": "address"
        },
        {
          "indexed": false,
          "internalType": "bool",
          "name": "approved",
          "type": "bool"
        }
      ],
      "name": "ApprovalForAll",
      "type": "event"
    },
    {
      "anonymous": false,
      "inputs": [
        {
          "indexed": true,
          "internalType": "address",
          "name": "from",
          "type": "address"
        },
        {
          "indexed": true,
          "internalType": "address",
          "name": "to",
          "type": "address"
        },
        {
          "indexed": true,
          "internalType": "uint256",
          "name": "tokenId",
          "type": "uint256"
        }
      ],
      "name": "Transfer",
      "type": "event"
    },
    {
      "inputs": [
        {
          "internalType": "address",
          "name": "to",
          "type": "address"
        },
        {
          "internalType": "uint256",
          "name": "tokenId",
          "type": "uint256"
        }
      ],
      "name": "approve",
      "outputs": [],
      "stateMutability": "nonpayable",
      "type": "function"
    },
    {
      "inputs": [
        {
          "internalType": "address",
          "name": "owner",
          "type": "address"
        }
      ],
      "name": "balanceOf",
      "outputs": [
        {
          "internalType": "uint256",
          "name": "",
          "type": "uint256"
        }
      ],
      "stateMutability": "view",
      "type": "function"
    },
    {
      "inputs": [
        {
          "internalType": "uint256",
          "name": "tokenId",
          "type": "uint256"
        }
      ],
      "name": "getApproved",
      "outputs": [
        {
          "internalType": "address",
          "name": "",
          "type": "address"
        }
      ],
      "stateMutability": "view",
      "type": "function"
    },
    {
      "inputs": [
        {
          "internalType": "address",
          "name": "owner",
          "type": "address"
        },
        {
          "internalType": "address",
          "name": "operator",
          "type": "address"
        }
      ],
      "name": "isApprovedForAll",
      "outputs": [
        {
          "internalType": "bool",
          "name": "",
          "type": "bool"
        }
      ],
      "stateMutability": "view",
      "type": "function"
    },
    {
      "inputs": [
        {
          "internalType": "address",
          "name": "to",
          "type": "address"
        },
        {
          "internalType": "uint256",
          "name": "tokenId",
          "type": "uint256"
        }
      ],
      "name": "mint",
      "outputs": [],
      "stateMutability": "nonpayable",
      "type": "function"
    },
    {
      "inputs": [
        {
          "internalType": "address",
          "name": "to",
          "type": "address"
        },
        {
          "internalType": "uint256",
          "name": "quantity",
          "type": "uint256"
        }
      ],
      "name": "multiMint",
      "outputs": [],
      "stateMutability": "nonpayable",
      "type": "function"
    },
    {
      "inputs": [],
      "name": "name",
      "outputs": [
        {
          "internalType": "string",
          "name": "",
          "type": "string"
        }
      ],
      "stateMutability": "view",
      "type": "function"
    },
    {
      "inputs": [
        {
          "internalType": "uint256",
          "name": "tokenId",
          "type": "uint256"
        }
      ],
      "name": "ownerOf",
      "outputs": [
        {
          "internalType": "address",
          "name": "",
          "type": "address"
        }
      ],
      "stateMutability": "view",
      "type": "function"
    },
    {
      "inputs": [
        {
          "internalType": "address",
          "name": "from",
          "type": "address"
        },
        {
          "internalType": "address",
          "name": "to",
          "type": "address"
        },
        {
          "internalType": "uint256",
          "name": "tokenId",
          "type": "uint256"
        }
      ],
      "name": "safeTransferFrom",
      "outputs": [],
      "stateMutability": "nonpayable",
      "type": "function"
    },
    {
      "inputs": [
        {
          "internalType": "address",
          "name": "from",
          "type": "address"
        },
        {
          "internalType": "address",
          "name": "to",
          "type": "address"
        },
        {
          "internalType": "uint256",
          "name": "tokenId",
          "type": "uint256"
        },
        {
          "internalType": "bytes",
          "name": "data",
          "type": "bytes"
        }
      ],
      "name": "safeTransferFrom",
      "outputs": [],
      "stateMutability": "nonpayable",
      "type": "function"
    },
    {
      "inputs": [
        {
          "internalType": "address",
          "name": "operator",
          "type": "address"
        },
        {
          "internalType": "bool",
          "name": "approved",
          "type": "bool"
        }
      ],
      "name": "setApprovalForAll",
      "outputs": [],
      "stateMutability": "nonpayable",
      "type": "function"
    },
    {
      "inputs": [
        {
          "internalType": "bytes4",
          "name": "interfaceId",
          "type": "bytes4"
        }
      ],
      "name": "supportsInterface",
      "outputs": [
        {
          "internalType": "bool",
          "name": "",
          "type": "bool"
        }
      ],
      "stateMutability": "view",
      "type": "function"
    },
    {
      "inputs": [],
      "name": "symbol",
      "outputs": [
        {
          "internalType": "string",
          "name": "",
          "type": "string"
        }
      ],
      "stateMutability": "view",
      "type": "function"
    },
    {
      "inputs": [
        {
          "internalType": "uint256",
          "name": "index",
          "type": "uint256"
        }
      ],
      "name": "tokenByIndex",
      "outputs": [
        {
          "internalType": "uint256",
          "name": "",
          "type": "uint256"
        }
      ],
      "stateMutability": "view",
      "type": "function"
    },
    {
      "inputs": [
        {
          "internalType": "address",
          "name": "owner",
          "type": "address"
        },
        {
          "internalType": "uint256",
          "name": "index",
          "type": "uint256"
        }
      ],
      "name": "tokenOfOwnerByIndex",
      "outputs": [
        {
          "internalType": "uint256",
          "name": "",
          "type": "uint256"
        }
      ],
      "stateMutability": "view",
      "type": "function"
    },
    {
      "inputs": [
        {
          "internalType": "uint256",
          "name": "tokenId",
          "type": "uint256"
        }
      ],
      "name": "tokenURI",
      "outputs": [
        {
          "internalType": "string",
          "name": "",
          "type": "string"
        }
      ],
      "stateMutability": "view",
      "type": "function"
    },
    {
      "inputs": [],
      "name": "totalSupply",
      "outputs": [
        {
          "internalType": "uint256",
          "name": "",
          "type": "uint256"
        }
      ],
      "stateMutability": "view",
      "type": "function"
    },
    {
      "inputs": [
        {
          "internalType": "address",
          "name": "from",
          "type": "address"
        },
        {
          "internalType": "address",
          "name": "to",
          "type": "address"
        },
        {
          "internalType": "uint256",
          "name": "tokenId",
          "type": "uint256"
        }
      ],
      "name": "transferFrom",
      "outputs": [],
      "stateMutability": "nonpayable",
      "type": "function"
    }
  ],
  "bytecode": {
    "object": "0x60806040523480156200001157600080fd5b506040518060400160405280600a815260200169456e756d657261626c6560b01b81525060405180604001604052806005815260200164115353919560da1b815250816000908162000064919062000121565b50600162000073828262000121565b505050620001ed565b634e487b7160e01b600052604160045260246000fd5b600181811c90821680620000a757607f821691505b602082108103620000c857634e487b7160e01b600052602260045260246000fd5b50919050565b601f8211156200011c57600081815260208120601f850160051c81016020861015620000f75750805b601f850160051c820191505b81811015620001185782815560010162000103565b5050505b505050565b81516001600160401b038111156200013d576200013d6200007c565b62000155816200014e845462000092565b84620000ce565b602080601f8311600181146200018d5760008415620001745750858301515b600019600386901b1c1916600185901b17855562000118565b600085815260208120601f198616915b82811015620001be578886015182559484019460019091019084016200019d565b5085821015620001dd5787850151600019600388901b60f8161c191681555b5050505050600190811b01905550565b6113c180620001fd6000396000f3fe608060405234801561001057600080fd5b50600436106101165760003560e01c806342842e0e116100a257806395d89b411161007157806395d89b4114610242578063a22cb4651461024a578063b88d4fde1461025d578063c87b56dd14610270578063e985e9c51461028357600080fd5b806342842e0e146101f65780634f6ccce7146102095780636352211e1461021c57806370a082311461022f57600080fd5b806318160ddd116100e957806318160ddd1461019857806323b872dd146101aa5780632649d62e146101bd5780632f745c59146101d057806340c10f19146101e357600080fd5b806301ffc9a71461011b57806306fdde0314610143578063081812fc14610158578063095ea7b314610183575b600080fd5b61012e610129366004610fc3565b610296565b60405190151581526020015b60405180910390f35b61014b6102c1565b60405161013a9190611030565b61016b610166366004611043565b610353565b6040516001600160a01b03909116815260200161013a565b610196610191366004611078565b61037c565b005b6008545b60405190815260200161013a565b6101966101b83660046110a2565b61038b565b6101966101cb366004611078565b61041b565b61019c6101de366004611078565b610447565b6101966101f1366004611078565b6104ac565b6101966102043660046110a2565b6104b6565b61019c610217366004611043565b6104d1565b61016b61022a366004611043565b61052a565b61019c61023d3660046110de565b610535565b61014b61057d565b6101966102583660046110f9565b61058c565b61019661026b36600461114b565b610597565b61014b61027e366004611043565b6105ae565b61012e610291366004611227565b610623565b60006001600160e01b0319821663780e9d6360e01b14806102bb57506102bb82610651565b92915050565b6060600080546102d09061125a565b80601f01602080910402602001604051908101604052809291908181526020018280546102fc9061125a565b80156103495780601f1061031e57610100808354040283529160200191610349565b820191906000526020600020905b81548152906001019060200180831161032c57829003601f168201915b5050505050905090565b600061035e826106a1565b506000828152600460205260409020546001600160a01b03166102bb565b6103878282336106da565b5050565b6001600160a01b0382166103ba57604051633250574960e11b8152600060048201526024015b60405180910390fd5b60006103c78383336106e7565b9050836001600160a01b0316816001600160a01b031614610415576040516364283d7b60e01b81526001600160a01b03808616600483015260248201849052821660448201526064016103b1565b50505050565b60005b818110156104425761043083836107bc565b8061043a816112aa565b91505061041e565b505050565b600061045283610535565b82106104835760405163295f44f760e21b81526001600160a01b0384166004820152602481018390526044016103b1565b506001600160a01b03919091166000908152600660209081526040808320938352929052205490565b61038782826107bc565b61044283838360405180602001604052806000815250610597565b60006104dc60085490565b82106105055760405163295f44f760e21b815260006004820152602481018390526044016103b1565b60088281548110610518576105186112c3565b90600052602060002001549050919050565b60006102bb826106a1565b60006001600160a01b038216610561576040516322718ad960e21b8152600060048201526024016103b1565b506001600160a01b031660009081526003602052604090205490565b6060600180546102d09061125a565b610387338383610821565b6105a284848461038b565b610415848484846108c0565b60606105b9826106a1565b5060006105d160408051602081019091526000815290565b905060008151116105f1576040518060200160405280600081525061061c565b806105fb846109e9565b60405160200161060c9291906112d9565b6040516020818303038152906040525b9392505050565b6001600160a01b03918216600090815260056020908152604080832093909416825291909152205460ff1690565b60006001600160e01b031982166380ac58cd60e01b148061068257506001600160e01b03198216635b5e139f60e01b145b806102bb57506301ffc9a760e01b6001600160e01b03198316146102bb565b6000818152600260205260408120546001600160a01b0316806102bb57604051637e27328960e01b8152600481018490526024016103b1565b6104428383836001610a7c565b6000806106f5858585610b82565b90506001600160a01b0381166107525761074d84600880546000838152600960205260408120829055600182018355919091527ff3f7a9fe364faab93b216da50a3214154f22a0a2b415b23a84c8169e8b636ee30155565b610775565b846001600160a01b0316816001600160a01b031614610775576107758185610c7b565b6001600160a01b0385166107915761078c84610d0c565b6107b4565b846001600160a01b0316816001600160a01b0316146107b4576107b48585610dbb565b949350505050565b6001600160a01b0382166107e657604051633250574960e11b8152600060048201526024016103b1565b60006107f4838360006106e7565b90506001600160a01b03811615610442576040516339e3563760e11b8152600060048201526024016103b1565b6001600160a01b03821661085357604051630b61174360e31b81526001600160a01b03831660048201526024016103b1565b6001600160a01b03838116600081815260056020908152604080832094871680845294825291829020805460ff191686151590811790915591519182527f17307eab39ab6107e8899845ad3d59bd9653f200f220920489ca2b5937696c31910160405180910390a3505050565b6001600160a01b0383163b1561041557604051630a85bd0160e11b81526001600160a01b0384169063150b7a0290610902903390889087908790600401611308565b6020604051808303816000875af192505050801561093d575060408051601f3d908101601f1916820190925261093a91810190611345565b60015b6109a6573d80801561096b576040519150601f19603f3d011682016040523d82523d6000602084013e610970565b606091505b50805160000361099e57604051633250574960e11b81526001600160a01b03851660048201526024016103b1565b805181602001fd5b6001600160e01b03198116630a85bd0160e11b146109e257604051633250574960e11b81526001600160a01b03851660048201526024016103b1565b5050505050565b606060006109f683610e0b565b600101905060008167ffffffffffffffff811115610a1657610a16611135565b6040519080825280601f01601f191660200182016040528015610a40576020820181803683370190505b5090508181016020015b600019016f181899199a1a9b1b9c1cb0b131b232b360811b600a86061a8153600a8504945084610a4a57509392505050565b8080610a9057506001600160a01b03821615155b15610b52576000610aa0846106a1565b90506001600160a01b03831615801590610acc5750826001600160a01b0316816001600160a01b031614155b8015610adf5750610add8184610623565b155b15610b085760405163a9fbf51f60e01b81526001600160a01b03841660048201526024016103b1565b8115610b505783856001600160a01b0316826001600160a01b03167f8c5be1e5ebec7d5bd14f71427d1e84f3dd0314c0f7b2291e5b200ac8c7c3b92560405160405180910390a45b505b5050600090815260046020526040902080546001600160a01b0319166001600160a01b0392909216919091179055565b6000828152600260205260408120546001600160a01b0390811690831615610baf57610baf818486610ee3565b6001600160a01b03811615610bed57610bcc600085600080610a7c565b6001600160a01b038116600090815260036020526040902080546000190190555b6001600160a01b03851615610c1c576001600160a01b0385166000908152600360205260409020805460010190555b60008481526002602052604080822080546001600160a01b0319166001600160a01b0389811691821790925591518793918516917fddf252ad1be2c89b69c2b068fc378daa952ba7f163c4a11628f55a4df523b3ef91a4949350505050565b6000610c8683610535565b600083815260076020526040902054909150808214610cd9576001600160a01b03841660009081526006602090815260408083208584528252808320548484528184208190558352600790915290208190555b5060009182526007602090815260408084208490556001600160a01b039094168352600681528383209183525290812055565b600854600090610d1e90600190611362565b60008381526009602052604081205460088054939450909284908110610d4657610d466112c3565b906000526020600020015490508060088381548110610d6757610d676112c3565b6000918252602080832090910192909255828152600990915260408082208490558582528120556008805480610d9f57610d9f611375565b6001900381819060005260206000200160009055905550505050565b60006001610dc884610535565b610dd29190611362565b6001600160a01b039093166000908152600660209081526040808320868452825280832085905593825260079052919091209190915550565b60008072184f03e93ff9f4daa797ed6e38ed64bf6a1f0160401b8310610e4a5772184f03e93ff9f4daa797ed6e38ed64bf6a1f0160401b830492506040015b6d04ee2d6d415b85acef81000000008310610e76576d04ee2d6d415b85acef8100000000830492506020015b662386f26fc100008310610e9457662386f26fc10000830492506010015b6305f5e1008310610eac576305f5e100830492506008015b6127108310610ec057612710830492506004015b60648310610ed2576064830492506002015b600a83106102bb5760010192915050565b610eee838383610f47565b610442576001600160a01b038316610f1c57604051637e27328960e01b8152600481018290526024016103b1565b60405163177e802f60e01b81526001600160a01b0383166004820152602481018290526044016103b1565b60006001600160a01b038316158015906107b45750826001600160a01b0316846001600160a01b03161480610f815750610f818484610623565b806107b45750506000908152600460205260409020546001600160a01b03908116911614919050565b6001600160e01b031981168114610fc057600080fd5b50565b600060208284031215610fd557600080fd5b813561061c81610faa565b60005b83811015610ffb578181015183820152602001610fe3565b50506000910152565b6000815180845261101c816020860160208601610fe0565b601f01601f19169290920160200192915050565b60208152600061061c6020830184611004565b60006020828403121561105557600080fd5b5035919050565b80356001600160a01b038116811461107357600080fd5b919050565b6000806040838503121561108b57600080fd5b6110948361105c565b946020939093013593505050565b6000806000606084860312156110b757600080fd5b6110c08461105c565b92506110ce6020850161105c565b9150604084013590509250925092565b6000602082840312156110f057600080fd5b61061c8261105c565b6000806040838503121561110c57600080fd5b6111158361105c565b91506020830135801515811461112a57600080fd5b809150509250929050565b634e487b7160e01b600052604160045260246000fd5b6000806000806080858703121561116157600080fd5b61116a8561105c565b93506111786020860161105c565b925060408501359150606085013567ffffffffffffffff8082111561119c57600080fd5b818701915087601f8301126111b057600080fd5b8135818111156111c2576111c2611135565b604051601f8201601f19908116603f011681019083821181831017156111ea576111ea611135565b816040528281528a602084870101111561120357600080fd5b82602086016020830137600060208483010152809550505050505092959194509250565b6000806040838503121561123a57600080fd5b6112438361105c565b91506112516020840161105c565b90509250929050565b600181811c9082168061126e57607f821691505b60208210810361128e57634e487b7160e01b600052602260045260246000fd5b50919050565b634e487b7160e01b600052601160045260246000fd5b6000600182016112bc576112bc611294565b5060010190565b634e487b7160e01b600052603260045260246000fd5b600083516112eb818460208801610fe0565b8351908301906112ff818360208801610fe0565b01949350505050565b6001600160a01b038581168252841660208201526040810183905260806060820181905260009061133b90830184611004565b9695505050505050565b60006020828403121561135757600080fd5b815161061c81610faa565b818103818111156102bb576102bb611294565b634e487b7160e01b600052603160045260246000fdfea2646970667358221220ff49dbf45731ced549aaad54094268ab83f09b027479ca98cf41e846661256bb64736f6c63430008150033",
    "linkReferences": {}
  },
  "methodIdentifiers": {
    "approve(address,uint256)": "095ea7b3",
    "balanceOf(address)": "70a08231",
    "getApproved(uint256)": "081812fc",
    "isApprovedForAll(address,address)": "e985e9c5",
    "mint(address,uint256)": "40c10f19",
    "multiMint(address,uint256)": "2649d62e",
    "name()": "06fdde03",
    "ownerOf(uint256)": "6352211e",
    "safeTransferFrom(address,address,uint256)": "42842e0e",
    "safeTransferFrom(address,address,uint256,bytes)": "b88d4fde",
    "setApprovalForAll(address,bool)": "a22cb465",
    "supportsInterface(bytes4)": "01ffc9a7",
    "symbol()": "95d89b41",
    "tokenByIndex(uint256)": "4f6ccce7",
    "tokenOfOwnerByIndex(address,uint256)": "2f745c59",
    "tokenURI(uint256)": "c87b56dd",
    "totalSupply()": "18160ddd",
    "transferFrom(address,address,uint256)": "23b872dd"
  },
  "id": 34
}